:020000040800F2
:10000000480A0020590300081D490008DF4700087E
:1000100019490008FF150008996C0008000000004D
:10002000000000000000000000000000E94B000894
:1000300011180008000000001F490008EB4B0008E1
:1000400073030008730300087303000873030008B8
:1000500073030008730300081318000873030008F3
:1000600029180008331800087303000873030008F8
:100070007303000873030008730300087303000888
:100080007303000873030008730300087303000878
:100090007303000873030008730300087303000868
:1000A0007303000873030008730300087303000858
:1000B0007303000873030008730300087303000848
:1000C0007303000873030008730300087303000838
:1000D00073030008756C00087303000873030008BD
:1000E0001D180008730300080000000073030008D7
:1000F0007303000873030008730300087303000808
:100100007303000873030008954D0008730300088B
:100110007303000873030008A54D0008730300086B
:1001200073030008730300087303000873030008D7
:1001300073030008730300087303000873030008C7
:1001400000000000000000000000000000000000AF
:1001500073030008730300087303000873030008A7
:100160007303000873030008730300087303000897
:100170007303000873030008730300080000000005
:100180007303000873030008730300087303000877
:100190007303000873030008730300087303000867
:1001A0007303000873030008730300087303000857
:1001B0007303000873030008730300087303000847
:1001C0007303000873030008730300087303000837
:1001D0007303000873030008730300087303000827
:1001E0007303000873030008730300087303000817
:1001F0007303000873030008730300087303000807
:1002000073030008730300087303000873030008F6
:1002100073030008730300087303000873030008E6
:100220007303000873030008730300080000000054
:100230007303000873030008000000007303000844
:1002400073030008730300087303000873030008B6
:1002500073030008730300087303000873030008A6
:100260007303000873030008730300087303000896
:100270007303000873030008730300080000000004
:1002800073030008730300087303000800000000F4
:10029000000000007303000800F002F800F04CF8C2
:1002A0000AA090E8000C82448344AAF10107DA45D1
:1002B00001D100F041F8AFF2090EBAE80F0013F0D7
:1002C000010F18BFFB1A43F0010318470C7D000013
:1002D0002C7D0000103A24BF78C878C1FAD85207A4
:1002E00024BF30C830C144BF04680C6070470000B0
:1002F0000023002400250026103A28BF78C1FBD82F
:10030000520728BF30C148BF0B607047662907F00D
:100310000686642900F0C480002070471FB507F0EE
:10032000F9FD00F037FC04000020002107F0DCFD9F
:10033000E0601FBD10B510BD00F044FD1146FFF791
:10034000EDFF07F0D9FB00F062FD03B4FFF7F2FF09
:1003500003BC06F0DEFC000009488047094800475E
:10036000FEE7FEE7FEE7FEE7FEE7FEE7FEE7FEE765
:10037000FEE7FEE704480549054A064B70470000C2
:10038000ED4C00089902000848040020480A0020AB
:10039000480600204806002053EA020C00F069805D
:1003A0002DE9F04B4FF00006002B1FBFB3FA83F589
:1003B00003FA05F424FA05F65E4012BF1643B2FABA
:1003C00082F502FA05F4C5F120051EBF22FA05FCEC
:1003D00044EA0C04203556EA044C4FEA144418BF92
:1003E000641C4FF000084FF00009904271EB030CC1
:1003F00039D3002919BFB1FA81F701FA07F6B0FA2B
:1004000080F700FA07F6C7F120071EBF20FA07FCA5
:1004100046EA0C062037B6FBF4FCA7EB0507103FB5
:1004200007F01F0BCBF120060CFA0BFB2CFA06F69B
:1004300044BFB3460026202FA4BF5E464FF0000BFA
:100440005BEA060C08BF4FF0010B19EB0B09ABFB85
:10045000027C48EB0608C01B06FB02CC0BFB03CC5E
:1004600071EB0C01C1E70B46024641464846BDE828
:10047000F08B13B54FF000004FF00001AFF3008098
:10048000BDE81C40704700000FB4044910B503AA32
:10049000029800F06DFB10BC5DF814FB1C000020FE
:1004A0002DE9F0410646002410687529314616A54D
:1004B00010D0AFF30080002802DA404213A507E015
:1004C00031688A0701D512A502E0490704D511A5B4
:1004D000012401E0AFF3008000210A2206F1240785
:1004E00009E0B0FBF2FCB0FBF2F302FB1C00303081
:1004F00078541846491C0028F3D123462A46304632
:10050000BDE8F04100F0CEB8000000002D00000072
:100510002B000000200000002DE9F05F8946044612
:100520004FF0000ADFF824B1FB44C0F820A02046B9
:10053000E168884700287DD0252806D0D4E901212C
:100540009047206A401C2062F1E700255F46204664
:10055000E16888472028064607DB312E05D2B81906
:1005600010F8200C08B10543F1E7A80701D525F0E4
:100570000405C4F81CA00027C4F818A02A2E09D02E
:10058000304606F0BFFB38B304EB8708303EC8F8AE
:10059000186019E059F8041B204604EB87029161AA
:1005A000E1688847012F064618D1E069002820DA63
:1005B00025F020051DE0D8F8180000EB800006EBC0
:1005C00040003038C8F818002046E16888470646E1
:1005D00006F098FB0028EED1012F0AD02E2E08D16C
:1005E0002046E16888477F1C0646022F45F020051B
:1005F000C4DBA069002803DA404245F00105A06190
:10060000E80701D025F01005A6B1A6F14100192890
:1006100002D8203645F400654A463146204625601A
:100620004D46FFF773FE60B1012807D0ED1D25F0A0
:10063000070000E007E000F1080978E705F1040988
:1006400075E730467AE7206ABDE8F09F067A000039
:100650004FF0000200B5134694469646203922BF5B
:10066000A0E80C50A0E80C50B1F12001BFF4F7AFA6
:10067000090728BFA0E80C5048BF0CC05DF804EB88
:10068000890028BF40F8042B08BF704748BF20F8F6
:10069000022B11F0804F18BF00F8012B70477047F4
:1006A000704770472DE9F0470D469946924604463B
:1006B00000F124080168880604D5E06921F01001E2
:1006C000216000E00120A84201DD471B00E0002777
:1006D000A1697A1902EB0900081AA0612078C00606
:1006E00002D42046AFF30080002608E0D4E90121BF
:1006F0001AF806009047206A401C761C20624E457E
:10070000F4DB2078C0060AD52046AFF3008006E06F
:10071000D4E9012130209047206A401C2062381E15
:10072000A7F10107F4DC07E0D4E9012118F805007E
:100730009047206A401C2062281EA5F10105F3DCC9
:100740002046AFF300802078000602D50220BDE8E5
:10075000F0870120FBE770472DE9FF4F0C461E464E
:100760004FF0FF378BB0D2E90001DDF860800A90CE
:100770008A46C1F30A5505B93D46002108464FF0A7
:100780000000BAF1000F00F4400005DA00EB800031
:100790004FF4400101EA50004FEA9059B9F1010FBE
:1007A00000DDB9460A9850EA4A000ED044F61050CF
:1007B000A5F2FF3545432F14B8F1000F1ED0754246
:1007C000291E1EDDC9F100021CE0B8F1010F4FF037
:1007D000000001D0302103E0F24305E02154401C29
:1007E000B042FBDB30460022002121540B99C1F8B6
:1007F0000880C1E900200FB0BDE8F08FBD1B6D1C63
:10080000DEE74A4600DA694206A800F065FA06AB60
:1008100093E8070003AB83E8070050460A9900F00D
:1008200033FB8DE80700A0F500501F3800900398B7
:10083000002D09DD42F21F014A46084403A9039036
:10084000684600F092FD08E0A0F500504A461F38C7
:1008500003A90390684600F09CFD8DE807000004A2
:10086000000C03D04FF0FF30410800E01046B8F113
:10087000000F03D00022009215461EE0751E05D41D
:1008800000F08CF9303262556D1EF9D5B346012265
:10089000084302D000227F1C04E02078302801D1D8
:1008A00000227F1E002A099786D01DE0112D07DA4D
:1008B00000F074F9303262556D1C50EA0102F5D136
:1008C000084302D00098C8B10EE00021681E05E080
:1008D000235C625C63542254401E491C8142F7DB56
:1008E000AB46A81B401E0990002004F80B000B9893
:1008F000099AC0F80880C0E9002B7CE711264FF068
:10090000000859E72DE9F04F88460446D21D22F031
:10091000070191B0D1E90001CDE90A0106F0BEF965
:1009200002460B98C00F01D02D2007E020688107F8
:1009300001D52B2002E0202101EAC000032A099002
:1009400001D0072A05DB03464146204600F084F922
:100950000BE12078800601D5E06900E00620B8F1BF
:10096000650F814606D0B8F1660F18D0B8F1670F51
:1009700070D131E00020B9F1110F009001DB11239B
:1009800001E009F101030AAA01A90CA8FFF7E4FE9E
:10099000DDE90C70002609F10105834647E00120DE
:1009A0004B4600904FF000470AAA01A90CA8FFF798
:1009B000D3FEDDE90DB00C995D46002610B909F1B2
:1009C00001000D18B9EB050003D4C0F1FF3609F1A1
:1009D0000105A5EB09002BE0B9F1010F01DA4FF099
:1009E00001090020B9F1110F0090484601DD1123E3
:1009F00000E003460AAA01A90CA8FFF7ADFEDDE955
:100A00000C704D4600268346207800070AD4AB457B
:100A100000DA5D4601A8012D04DD411911F8011C21
:100A2000302907D04F4502DA17F1040F04DA01200C
:100A300082460FE06D1EEEE7002F02DCED1B3E4408
:100A400003E0781CA84200DD7D1CB81B00F1010A00
:100A50004FF000472078000703D4AA4501DB4FF090
:100A6000FF3A0021B7F1004F0DF143088DF8431014
:100A700024D002202B23002F01DA7F422D230A21CC
:100A8000021EA0F1010000DC5FB197FBF1FC97FBB7
:100A9000F1F201FB1C7C17460CF1300C08F801CD7B
:100AA000EEE7A8F1010003702188090501D5452171
:100AB00000E06521A0F1010800F8011C09980FA9C8
:100AC000A1EB0807FF1D00B10120411901EBEA70FD
:100AD000A1693844081A401EA0612078C00602D4DB
:100AE0002046AFF30080099828B1D4E9012190474E
:100AF000206A401C20622078C00622D52046AFF331
:100B000000801EE0002E04DBB34502DD01A8805DFD
:100B100000E03020D4E901219047206A401C206287
:100B2000761CAAF101005FEA000A0AD100F032F84F
:100B3000C0680168405CD4E901219047206A401CEC
:100B40002062281EA5F10105DCDC07E0D4E90121C3
:100B500018F8010B9047206A401C2062381EA7F14C
:100B60000107F3DC2046AFF30080032011B043E619
:100B7000074B70B50D467B4400F05BF804462846F1
:100B800000F018F910B14FF0FF3070BD204670BD75
:100B9000636F0000004870470804002030B5B0F1D2
:100BA0000A024FEA900E71F100034EEA817EB0EB2B
:100BB0000E0061EB91014FEA101E4EEA017E10EB30
:100BC0000E0041EB11114FEA102E4EEA016E10EBB0
:100BD0000E0041EB11214FEA104E4EEA014E10EB90
:100BE0000E0041EB1141401841F100014FEAD000E5
:100BF00040EA41704FEAD10110EB80054FEA8104D1
:100C000044EA907444EB01046D1944EB0404521B54
:100C1000A3414FF0000348BF0A3200D530BD401C4D
:100C200041F1000130BD000001694A1C02610878F1
:100C3000704700B58FB0CDE901310021059105491C
:100C40007944CDE9031011466846FFF765FC0FB003
:100C500000BD0000E5FFFFFF2DE9F0411F460446FF
:100C600003260168072A01F4006004DB08B116A519
:100C700005E016A503E008B115A500E015A521F0D3
:100C800010002060A069C01EA0610FB1401EA061CD
:100C90002046AFF300804FB1D4E901213846904798
:100CA000206A401C2062C01C206206E0206AFAE72D
:100CB000D4E9012115F8010B9047761EF8D22046A1
:100CC000AFF30080BDE8F0814E414E006E616E00D2
:100CD000494E4600696E66002DE9F047814616468A
:100CE0008AB0334878440DC88DE80D003048784408
:100CF000801C03AC0DC884E80D0041F69B3008440D
:100D0000372190FBF1F290FBF1F5A5F1800501FB95
:100D100012041B3C02D56442012000E00020DFF8F1
:100D200090A080460027FA44AAF1BE0A0DE0E00731
:100D300009D03246684607EB47010AEB810100F013
:100D400028FB8DE8070064107F1C002CEFD1184FA2
:100D50007F44AC3F18E0E80714D007EB04100DF116
:100D6000180A90E80E008AE80E00C068F04201D12F
:100D700098190890324606A903A800F00AFB03ABB5
:100D800083E807006D10641C002DE4D132466946EB
:100D9000B8F1000F03A802D000F0E7FA01E000F07C
:100DA000F8FAC9E90001C9F808200AB0BDE8F087DF
:100DB000D8720000007B00F0800070470048704748
:100DC000E80300207546FFF7F9FFAE4605006946C7
:100DD000534620F00700854618B020B5FFF7CAFA41
:100DE000BDE820404FF000064FF000074FF000082C
:100DF0004FF0000B21F00701AC46ACE8C009ACE8AD
:100E0000C009ACE8C009ACE8C0098D46704710B510
:100E10000446AFF300802046BDE81040FFF795BAC6
:100E20004FF0013C50F8042B51F8043B9A4215D185
:100E3000A2EB0C03934313EACC130BD150F8042B11
:100E400051F8043B9A4209D1A2EB0C03934313EAF5
:100E5000CC13E7D04FF00000704700BFD01A01BAA2
:100E6000B1FA81F101F0180122FA01F0CB40C1F191
:100E70002001DBB2C0B2C01A2CFA01F3D11A91439F
:100E800011EAC311E6D170475FEA400C08BF91F048
:100E9000000F4FEA8C234FEAC12243EA51514FEA37
:100EA0001C5018BF00F5F0404FEA300018BF41F069
:100EB00000415FEA6C5C00F02980BCF1FF3F08BF95
:100EC00040F080407047130C06BF12044FF0100C26
:100ED0004FF0000C130E04BF12020CF1080C130F9C
:100EE00004BF12010CF1040C930F04BF92000CF12B
:100EF000020CD30F04BF52000CF1010C11464FF04D
:100F00000002A0F11F00A0EB0C00704711F0004F91
:100F100008BF704731F000413FF4D5AF0B0C06BF5E
:100F200009044FF0100C4FF0000C0B0E04BF090227
:100F30000CF1080C0B0F04BF09010CF1040C8B0F12
:100F400004BF89000CF1020CCB0F04BF49000CF167
:100F5000010CCCF12003A0EB0C0022FA03F302FAFF
:100F60000CF241EA030100F10100704720F07F4CD0
:100F700080EA030023F07F47ACEB070303F57C53C3
:100F800000F0004003F1FF032DE980494FEA154BC3
:100F900009B44FEA144325EA0B4E24EA03480FF242
:100FA000042606EB132749083E785FEA320203FB6A
:100FB0000667C7F5000707FB06F64FEA54374FEA06
:100FC000D64606F1020607FB066CCCF1005C4FEA40
:100FD0001C472CEA074C07FB06F40CFB06F504EB58
:100FE00015464FEA961634BF00204FF000404FEAF6
:100FF000D13706FB07FC4FEA1C4C0CFB0BF7D21B4E
:1010000003FB0CF761EB07010CFB0EF7B0EB07409D
:1010100072EB17420CFB08F734BFA2EB0742B2EBAE
:10102000074261EB17414FEA0C444FEA910706FB78
:1010300007FC4FEA1C4C0CFB0BF7B0EBC74072EB04
:10104000573203FB0CF734BFA2EBC742B2EBC742E7
:1010500061EB57310CFB0EF7B0EBC70072EB577228
:101060000CFB08F734BFA2EBC702B2EBC70261EB7F
:101070005771039F4FEA816141EA921104EBCC045E
:101080004FEAD1374FEA826206FB07FC42EA901230
:101090004FEA80604FEA1C4C0CFB0BF7D21B03FBA2
:1010A0000CF761EB07010CFB0EF7B0EB074072EB9E
:1010B00017420CFB08F734BFA2EB0742B2EB074222
:1010C00061EB17414FEA8C554FEA910704EB9C24E2
:1010D00006FB07FC4FEA1C4C0CFB0BF7B0EBC740C0
:1010E00072EB573203FB0CF734BFA2EBC742B2EBF3
:1010F000C74261EB57310CFB0EF7B0EBC70072EB48
:1011000057720CFB08F734BFA2EBC702B2EBC70261
:1011100061EB577115EB4C254FEA816141EA921161
:101120004FEA82624FEAD13742EA901206FB07FC8F
:1011300044F100044FEA80604FEA1C4C0CFB0BF7B3
:10114000D21B03FB0CF761EB07010CFB0EF7B0EBB6
:10115000074072EB17420CFB08F734BFA2EB0742C3
:10116000B2EB074261EB174115EB1C154FEA8131D9
:1011700041EA92414FEA823242EA90424FEA80309D
:101180004FEA0C7644F1000448EA03434EEA0B4868
:101190004FF0000EB2EB080C71EB030724BF624660
:1011A00039464EEB0E0E4FF0000B001852414941EC
:1011B0004BEB0B0BB2EB080C71EB03077BF1000B55
:1011C00024BF624639464EEB0E0E4FF0000B00185E
:1011D000524149414BEB0B0BB2EB080C71EB03078F
:1011E0007BF1000B24BF624639464EEB0E0E51EAEE
:1011F000020718BF46F0010616EB0E7655F1000205
:1012000054F1000103D5BDE88901BDE80088BDE8BF
:101210008901BDE80048B619524141EB0101A3F133
:101220000103704780807F7E7D7C7B7A797877763A
:1012300076757473727171706F6E6E6D6C6C6B6AB3
:101240006A69686867666665646463636261616051
:10125000605F5F5E5E5D5D5C5C5B5B5A5A595958CE
:101260005857575656555555545453535252525138
:10127000515050504F4F4F4E4E4D4D4D4C4C4C4B8E
:101280004B4B4A4A4A4949494848484747474746D5
:101290004646454545444444444343434342424211
:1012A00042414141002B26D4770021D01CB54FEAA2
:1012B000370703B44FF010004FF010014FF000005B
:1012C0000FBCBDE810400BF1010BBBF1010F08BFD3
:1012D0005FEA170722BF12F1010211F101014FF07D
:1012E000004143F1000300F0004043EA0000704772
:1012F000F9D35708DAE746EA064613F1400F4FEAFA
:1013000016461FDD13F1200FDFBF16430A460021EA
:1013100020335B42C8D0C3F1200746EA064602FAF2
:1013200007F74FEA164646EA0706C3F1200722FAF6
:1013300003F201FA07F721FA03F14FF0000342EA42
:101340000702B1E746EA020646EA06464FEA1646B3
:1013500046EA0106BCBF46EA0646360C4FF00003DB
:101360004FF000024FF000019EE72DE9C048934680
:1013700030B491E8380007C831EA400C48BF34EA7D
:10138000430C03D5FFF7F2FDFFF78CFFF0BCBDE87F
:1013900000882DE9C048934630B491E8380007C86A
:1013A00010F0804F08BF13F0804F03D100F005F814
:1013B000FFF778FFF0BCBDE8008820F07F4780EAA7
:1013C000030023F07F4C07EB0C03A3F57C5300F0E4
:1013D0000040A3F1FE0392F0000F00F0B38095F0FF
:1013E000000F00F077802DE901494FEA11404FEAE4
:1013F000144621EA004800FB06FC24EA064708FBE5
:1014000006F607FB08F800FB07F718EB06484CEB5D
:10141000164C4FEA124B18EB07484FEA15464CEBB7
:10142000174022EA0B4E0BFB06FC25EA06470EFB93
:1014300006F607FB0EFE0BFB07F71EEB064E4CEB0A
:10144000164C4FF000061EEB074E4CEB174B18EBFB
:101450000B0840F1000018EB0E0B58EB000840F1B0
:1014600000008F1A4FF000013CBFC943661B14BF38
:10147000B5EB040C00213CBFC943F61B4FEA1744EF
:101480004EEA8E0E27EA04454FEA1C4704FB07622A
:101490002CEA074C05FB07F70CFB05F604FB0CFCDC
:1014A00016EB074642EB174216EB0C4642EB1C428A
:1014B0001BEB060658EB0202414146EA9E0601D5A7
:1014C000BDE80189B619524141EB0101A3F10103C5
:1014D000BDE801894FEA14454FEA114724EA054661
:1014E00021EA074C05FB07F406FB07F70CFB06F1A6
:1014F00005FB0CFC11EB074144EB17444FEA124784
:1015000011EB0C4144EB1C4422EA074C05FB07F2AB
:1015100006FB07F70CFB06F605FB0CFC16EB074673
:1015200042EB174216EB0C4642EB1C456A1854F18D
:10153000000148BF7047B619524141EB0101A3F1C8
:101540000103704795F0000F37D04FEA11424FEA80
:10155000144721EA024624EA074C02FB07F106FB86
:1015600007F70CFB06F402FB0CFC14EB074441EB01
:1015700017414FEA154714EB0C4441EB1C4125EA97
:10158000074C02FB07F506FB07F70CFB06F602FB10
:101590000CFC16EB074645EB174516EB0C4645EBE6
:1015A0001C42121951F1000148BF7047B61952414F
:1015B00041EB0101A3F1010370474FEA14454FEAE3
:1015C000114724EA054621EA074C05FB07F106FB13
:1015D00007F70CFB06F24FF0000605FB0CFC12EBC4
:1015E000074241EB174112EB0C4251EB1C4148BF43
:1015F0007047921841EB0101A3F10103704700BF4E
:10160000FEE700000148406870470000001000E05D
:101610002DE9F0410746002601F042FE0F49B0FBDC
:10162000F1F000FB07F800BFFFF7ECFF054611E003
:10163000FFF7E8FF0446AC420CD0AC4202D9601B75
:10164000064403E0C5F1FF302044064425464645E4
:1016500000D300E0ECE700BFBDE8F08140420F009E
:1016600030B51848D0ED4D0AB0EE600A012000F008
:101670007BF81448D0ED6E0AB0EE600A022000F04C
:1016800073F81048D0ED4C0AB0EE600A032000F069
:101690006BF8032000F01CF8054600240EE000BFA4
:1016A00009480068C06900F040000028F8D00748E9
:1016B000005D054909688862601CC4B2AC42EEDB7B
:1016C00030BD00003C00002030030020BC0300209F
:1016D00001460A2900DC09B9002070472420214A6C
:1016E00010700B293CD2DFE801F03B060B10151AF5
:1016F0001F24292F350005201A4A50710620ECE7D7
:101700000920184A50720A20E7E70D20154A507345
:101710000E20E2E71120134A50741220DDE7152055
:10172000104A50751620D8E719200E4A50761A2014
:10173000D3E71D200B4A50771E20CEE72120094A0F
:1017400082F821002220C8E72520064A82F82500D9
:101750002620C2E72920034A82F829002A20BCE774
:101760000020BAE7BC03002011B52DED020B0446A2
:101770000A2C00DC04B91EBD0B2C43D2DFE804F0B8
:1017800042060C12181E242A30363C0001221F4942
:10179000684600F053F835E005221C49684600F021
:1017A0004DF82FE009221949684600F047F829E072
:1017B0000D221649684600F041F823E01122134932
:1017C000684600F03BF81DE015221049684600F01D
:1017D00035F817E019220D49684600F02FF811E09E
:1017E0001D220A49684600F029F80BE0212207492A
:1017F000684600F023F805E025220449684600F019
:101800001DF800BF00BF00BFB5E70000BC0300200B
:10181000704710B5012000F0C3F910BD10B54FF4AA
:10182000005000F0BDF910BD10B5042000F0B8F96B
:1018300010BD10B5082000F0B3F910BD30B5034657
:101840001C788C545D78541C0D559D78941C0D5556
:10185000DD78D41C0D5530BD70B504460CB901209F
:1018600070BD94F83500022803D080206065012007
:10187000F6E79F492068884249D09D491831206881
:10188000884244D09A493031206888423FD09849F4
:101890004831206888423AD09549603120688842B2
:1018A00035D0934978312068884230D090499031C2
:1018B000206888422BD08E49A8312068884226D0E3
:1018C0008C492068884222D08A4918312068884291
:1018D0001DD0884930312068884218D08549483168
:1018E0002068884213D083496031206888420ED036
:1018F000804978312068884209D07E49903120683B
:10190000884204D07B49A8312068884201D1012057
:1019100000E00020F0B3042084F83500744920680A
:1019200088424BD0724918312068884246D07049AD
:1019300030312068884241D06D4948312068884262
:101940003CD06B4960312068884237D06849783193
:101950002068884232D066499031206888422DD074
:101960006349A8312068884228D0624920688842AB
:1019700024D060491831206888421FD05D49303139
:10198000206888421AD05B4948312068884215D0C7
:10199000584900E020E06031206888420ED0554967
:1019A00078312068884209D05249903120688842B5
:1019B00004D05049A8312068884206D120680068C8
:1019C00020F001002168086090E02068006820F0A5
:1019D00001002168086089E02068006820F00E009E
:1019E0002168086042492068884249D0404918313E
:1019F0002068884244D03E493031206888423FD038
:101A00003B494831206888423AD0394960312068E2
:101A1000884235D0364978312068884230D0344900
:101A20009031206888422BD03149A8312068884203
:101A300026D030492068884222D02E4918312068AB
:101A400088421DD02B4930312068884218D029495E
:101A500048312068884213D0264960312068884286
:101A60000ED0244978312068884209D0214990312C
:101A70002068884204D01F49A8312068884206D1D6
:101A80002068006820F001002168086005E02068F7
:101A9000006820F0010021680860206E006820F4D2
:101AA0008070216E0860A56D94F85C0000F01F0145
:101AB000012088406860D4E919104860E06E40B1A8
:101AC000E06E006820F48070E16E0860D4E91C10BC
:101AD000486000BF002084F8340000BF012084F873
:101AE0003500206D10B12046216D88470020B7E6F3
:101AF000100002401004024070B5044600F076F970
:101B000006462546681C10B104480078054400BF0D
:101B100000F06CF9801BA842FAD370BD10000020C1
:101B200010B504464CF25030FFF772FD012C07D07F
:101B3000042C0FD0082C20D0B4F5005F26D112E081
:101B40000121134800F03EF9012802D10320114978
:101B500008601BE00421104800F034F910B901209E
:101B60000C49086012E04FF400510C4800F02AF9CB
:101B700010B902200749086008E00821064800F073
:101B800021F910B900200349086000BF00BF10BD53
:101B90000000025814000020001C025800080258DF
:101BA00010B5044604480068204020B10248046093
:101BB0002046FFF7B5FF10BD88000058F8B5024673
:101BC0000023734DDEE001279F400E6806EA0704FC
:101BD000002C71D04E68022E02D04E68122E13D106
:101BE000DF0802F1200656F827005E07F70E0F26E1
:101BF000BE40B0435F07FF0E0E69BE403043DF08B2
:101C000002F1200646F8270010685F000326BE4058
:101C1000B0430E7906F003065F00BE40304310600B
:101C20004E68012E08D04E68022E05D04E68112E47
:101C300002D04E68122E13D190685F000326BE407A
:101C4000B0435F00CE68BE403043906050680126CC
:101C50009E40B0430E79C6F300169E40304350605C
:101C6000D0685F000326BE40B0435F008E68BE4070
:101C70003043D0604E6806F08056B6F1805F1BD1CD
:101C800000BF444E366846F00206424F3E603E4674
:101C9000366806F00206009600BF00BF3E4E9F0861
:101CA00056F827009E07370F0F26BE40B0433B4E25
:101CB000B24202D100262EE063E0394EB24201D199
:101CC000012628E0374EB24201D1022623E0364EEB
:101CD000B24201D103261EE0344EB24201D10426A5
:101CE00019E0334EB24201D1052614E0314EB24222
:101CF00001D106260FE0304EB24201D107260AE09C
:101D00002E4EB24201D1082605E02D4EB24201D13D
:101D1000092600E00A269F073F0FBE4030431E4EB3
:101D20009F0846F827002868A0434E6806F48036CE
:101D3000B6F5803F00D1204328606868A0434E6814
:101D400006F40036B6F5003F00D1204368604FF03E
:101D5000B0463068A0434E6806F48016B6F5801F82
:101D600000D120434FF0B04630607068A0434E6809
:101D700006F40016B6F5001F00D120434FF0B04620
:101D800070605B1C0E68DE40002E7FF41CAFF8BD57
:101D900080000058F444025808040058000002581B
:101DA0000004025800080258000C025800100258A3
:101DB0000014025800180258001C02580020025853
:101DC00000240258024613690B400BB1012000E0C9
:101DD000002070470AB1816101E00B048361704704
:101DE00001480068000C70470010005C10B501F05D
:101DF00057FA044949684FF47A725143B1FBF0F045
:101E000010BD0000001000E001460848006840F0E6
:101E10008070064A10600020054A50601046006835
:101E200040F001001060002070470000FCED00E071
:101E3000001000E001460846002809DB00F01F03FF
:101E400001229A4043099B0003F1E023C3F80021DB
:101E500000BF70472DE9F05F80460D46164604F03E
:101E600035FF074639462A46334601F00700C0F1E0
:101E7000070ABAF1040F02D94FF0040A01E0C0F1D9
:101E8000070AD14600F1040ABAF1070F02D24FF057
:101E9000000A01E0A0F1030AD4464FF0010A0AFA51
:101EA00009FAAAF1010A0AEA020A0AFA0CFA4FF040
:101EB000010B0BFA0CFBABF1010B0BEA030B4AEA2B
:101EC0000B042146404604F009FFBDE8F09F0000E6
:101ED00070B504461548006800F00400042807D0D7
:101EE0001248006800F00700A04201D0012070BD38
:101EF0000E48006820F0070020430C490860FFF7F7
:101F000075FF054607E0FFF771FF401BB0F57A7FCC
:101F100001D90320EBE705480838006800F40050B9
:101F2000B0F5005FEFD10020E1E700000C48025857
:101F300010B501F0B5F907490968C1F30321064A54
:101F4000515C01F01F01C840044908600846006860
:101F500010BD000018440258227F00080000002035
:101F600010B501F061F905490968C1F30211044A8D
:101F7000515C01F01F01C84010BD00002044025810
:101F8000227F000870B50146844D2D6805F00303DB
:101F9000824D2D68C5F30530804D2D1D2D6805F04F
:101FA00010047E4D14352D68C5F3CC0515FB04F5E2
:101FB00001EE105AB8EE411AF0EE410A00286FD037
:101FC00023B1012B4ED0022B6BD16BE0734D283D1A
:101FD0002D68C5F340153DB3704D283D2D68C5F300
:101FE000C1066F4D25FA06F201EE102AF8EE411AED
:101FF00001EE100AB8EE411A81EE812A9FED691AAE
:10200000C0EE811A654D10352D68C5F3080501EE47
:10201000105AB8EE411A31EE811AF7EE001A31EE7D
:10202000211A22EE010A1CE001EE100AB8EE411A54
:10203000DFED5D1A81EE812A9FED5A1AC0EE811AFA
:10204000564D10352D68C5F3080501EE105AB8EE4F
:10205000411A31EE811AF7EE001A31EE211A22EE02
:10206000010A5BE001EE100AB8EE411ADFED4F1AEB
:1020700081EE812A9FED4B1AC0EE811A474D103533
:102080002D68C5F3080501EE105AB8EE411A31EE7D
:10209000811AF7EE001A31EE211A22EE010A3DE014
:1020A00077E01DE001EE100AB8EE411A9FED402ADC
:1020B000C2EE011A9FED3B1A80EE812A374D103592
:1020C0002D68C5F3080501EE105AB8EE411A32EE3C
:1020D000011AB7EE002A31EE021A21EE810A1DE044
:1020E00001EE100AB8EE411ADFED301A81EE812AB6
:1020F0009FED2C1AC0EE811A284D10352D68C5F3BE
:10210000080501EE105AB8EE411A31EE811AF7EEC9
:10211000001A31EE211A22EE010A00BF00BF1F4D46
:1021200010352D68C5F3462501EE105AB8EE411A58
:10213000F7EE001A31EE211AC0EE011ABCEEE11AD8
:1021400081ED001A154D10352D68C5F3064501EED9
:10215000105AB8EE411AF7EE001A31EE211AC0EE0D
:10216000011ABCEEE11A81ED011A0C4D10352D68F3
:10217000C5F3066501EE105AB8EE411AF7EE001AE3
:1021800031EE211AC0EE011ABCEEE11A81ED021AFD
:1021900003E000250D604D608D6070BD284402583D
:1021A0000090D003000000460024744C0024744AC0
:1021B00020BCBE4B70B50146844D2D6805F003036D
:1021C000824D2D68C5F30550804D2D1D2D6805F4F9
:1021D00080747E4D1C352D68C5F3CC0515FB04F5C8
:1021E00001EE105AB8EE411AF0EE410A00286FD005
:1021F00023B1012B4ED0022B6BD16BE0734D283DE8
:102200002D68C5F340153DB3704D283D2D68C5F3CD
:10221000C1066F4D25FA06F201EE102AF8EE411ABA
:1022200001EE100AB8EE411A81EE812A9FED691A7B
:10223000C0EE811A654D18352D68C5F3080501EE0D
:10224000105AB8EE411A31EE811AF7EE001A31EE4B
:10225000211A22EE010A1CE001EE100AB8EE411A22
:10226000DFED5D1A81EE812A9FED5A1AC0EE811AC8
:10227000564D18352D68C5F3080501EE105AB8EE15
:10228000411A31EE811AF7EE001A31EE211A22EED0
:10229000010A5BE001EE100AB8EE411ADFED4F1AB9
:1022A00081EE812A9FED4B1AC0EE811A474D1835F9
:1022B0002D68C5F3080501EE105AB8EE411A31EE4B
:1022C000811AF7EE001A31EE211A22EE010A3DE0E2
:1022D00077E01DE001EE100AB8EE411A9FED402AAA
:1022E000C2EE011A9FED3B1A80EE812A374D183558
:1022F0002D68C5F3080501EE105AB8EE411A32EE0A
:10230000011AB7EE002A31EE021A21EE810A1DE011
:1023100001EE100AB8EE411ADFED301A81EE812A83
:102320009FED2C1AC0EE811A284D18352D68C5F383
:10233000080501EE105AB8EE411A31EE811AF7EE97
:10234000001A31EE211A22EE010A00BF00BF1F4D14
:1023500018352D68C5F3462501EE105AB8EE411A1E
:10236000F7EE001A31EE211AC0EE011ABCEEE11AA6
:1023700081ED001A154D18352D68C5F3064501EE9F
:10238000105AB8EE411AF7EE001A31EE211AC0EEDB
:10239000011ABCEEE11A81ED011A0C4D18352D68B9
:1023A000C5F3066501EE105AB8EE411AF7EE001AB1
:1023B00031EE211AC0EE011ABCEEE11A81ED021ACB
:1023C00003E000250D604D608D6070BD284402580B
:1023D0000090D003000000460024744C0024744A8E
:1023E00020BCBE4B2DE9F04104460025A8462068DC
:1023F00000F00060B0F1006F30D1606E48B1B0F510
:10240000801F0DD0B0F5001F10D0B0F5401F15D1C2
:1024100013E0F948006840F40030F74908600FE025
:102420000221201D02F07CFA054609E0022104F198
:10243000240002F027FB054602E001E0012500BF71
:1024400000BF55B9EC482430006820F44010616E9C
:102450000843E9492431086000E0A846208800F4D8
:102460008070B0F5807F2DD1606D05281AD2DFE82D
:1024700000F0030A10171800DF48006840F400302D
:10248000DD49086010E00021201D02F049FA0546F0
:102490000AE0002104F1240002F0F4FA054603E00A
:1024A00002E001E0012500BF00BF55B9D248243049
:1024B000006820F00700616D0843CF4924310860AF
:1024C00000E0A846208800F40070B0F5007F33D10A
:1024D000A06D802817D003DC40B140281CD10CE04F
:1024E000C02817D0B0F5807F16D114E0C24800682C
:1024F00040F40030C049086010E00021201D02F0C7
:102500000FFA05460AE0002104F1240002F0BAFAAD
:10251000054603E002E001E0012500BF00BF55B918
:10252000B5482430006820F4E070A16D0843B2493A
:102530002431086000E0A846208800F48060B0F5EF
:10254000806F38D1D4F8A400B0F5800F19D004DC26
:1025500050B1B0F5001F1DD10DE0B0F5C00F17D080
:10256000B0F5000F16D114E0A348006840F4003025
:10257000A149086010E00021201D02F0D1F90546B4
:102580000AE0002104F1240002F07CFA054603E091
:1025900002E001E0012500BF00BF5DB996482C3084
:1025A000006820F46000D4F8A410084392492C314C
:1025B000086000E0A846208800F40060B0F5006FD5
:1025C00038D1D4F8A800B0F1007F19D004DC50B1A4
:1025D000B0F1807F1DD10DE0B0F1407F17D0B0F198
:1025E000806F16D114E08448006840F400308249BE
:1025F000086010E00021201D02F092F905460AE073
:10260000002104F1240002F03DFA054603E002E057
:1026100001E0012500BF00BF5DB977482C3000689C
:1026200020F0E060D4F8A810084373492C3108600A
:1026300000E0A846206800F00070B0F1007F27D1CC
:10264000A06CA0B1102804D0202809D030280FD1C8
:102650000CE06948006840F400306749086009E010
:102660000221201D02F05CF9054603E002E001E0D2
:10267000012500BF00BF55B95F482030006820F039
:102680003000A16C08435C492031086000E0A84696
:10269000208800F48050B0F5805F36D1E06DB0F551
:1026A000005F19D004DC50B1B0F5805F1DD10DE0A2
:1026B000B0F5405F17D0B0F5804F16D114E04E480A
:1026C000006840F400304C49086010E00021201DF3
:1026D00002F026F905460AE0002104F1240002F088
:1026E000D1F9054603E002E001E0012500BF00BF8B
:1026F00055B941482430006820F4E040E16D0843BA
:102700003D492431086000E0A846208800F40050CC
:10271000B0F5005F34D1206EB0F5403F1DD007DC2E
:1027200068B1B0F5803F0BD0B0F5003F18D10DE097
:10273000B0F5802F12D0B0F5A02F11D10FE011E02D
:102740000121201D02F0ECF805460BE0012104F107
:10275000240002F097F9054604E003E002E001E0FE
:10276000012500BF00BF55B923482430006820F47C
:10277000E020216E084320492431086000E0A8468B
:10278000208800F48040B0F5804F38D1D4F8AC00F8
:10279000B0F1405F1DD007DC68B1B0F1805F0BD0B5
:1027A000B0F1005F18D10DE0B0F1804F12D0B0F160
:1027B000A04F11D10FE011E00121201D02F0B0F86F
:1027C00005460BE0012104F1240002F05BF9054607
:1027D00004E003E002E001E0012500BF00BF6DB9A5
:1027E00005482C30006820F0E040D4F8AC100843D5
:1027F00001492C31086002E02C440258A846208888
:1028000000F40040B0F5004F26D1E06E98B1B0F171
:10281000805F03D0B0F1005F0ED106E0F948006898
:1028200040F40030F749086008E00121201D02F063
:1028300077F8054602E001E0012500BF00BF55B969
:10284000F0482430006820F04050E16E0843ED4924
:102850002431086000E0A846206800F08070B0F1E4
:10286000807F27D1606CA0B1012804D0022809D054
:1028700003280FD10CE0E348006840F40030E14940
:10288000086009E00221201D02F04AF8054603E035
:1028900002E001E0012500BF00BF55B9D948203052
:1028A000006820F00300616C0843D64920310860BD
:1028B00000E0A846206800F48000B0F5800F7DD1CC
:1028C000D148006840F48070CF490860FFF78EFA65
:1028D000064606E0FFF78AFA801B642801D9032523
:1028E00005E0C948006800F480700028F2D000BFFD
:1028F00085BBC4484430006800F44070B4F8B010A0
:1029000001F44071884213D0BE484430006820F47E
:102910004077BC484430006840F48030B9494431C5
:1029200008600846006820F48030086008460760A8
:10293000D4F8B000B0F5807F15D1FFF757FA0646FE
:1029400009E0FFF753FA801B41F28831884202D92F
:10295000032507E038E0AB4844300068C0F340008E
:102960000028EED000BF55BB00BFB4F8B00000F4A3
:102970004070B0F5407F0ED1A2481C38006820F4AA
:102980007C51A24AD4F8B000104041EA10109D4991
:102990001C39086007E09B481C38006820F47C5014
:1029A00098491C390860974844300068B4F8B01062
:1029B000C1F30B0108439349443101E005E001E014
:1029C000086002E0A84600E0A846207800F0010078
:1029D00068B3A06F182819D005DC48B1082808D0C2
:1029E000102816D10BE0202811D0282811D10FE093
:1029F00011E00121201D01F093FF05460BE00121AC
:102A000004F1240002F03EF8054604E003E002E091
:102A100001E0012500BF00BF55B97A4828300068A1
:102A200020F03800A16F084376492831086000E0A3
:102A3000A846207800F00200022828D1606F0628FE
:102A400015D2DFE800F003040A11121311E001218E
:102A5000201D01F065FF05460BE0012104F1240073
:102A600002F010F8054604E003E002E001E0012571
:102A700000BF00BF55B963482830006820F0070048
:102A8000616F08435F492831086000E0A84620785C
:102A900000F0040004282AD1D4F89000062815D2AA
:102AA000DFE800F003040A11121311E00121201DD8
:102AB00001F036FF05460BE0012104F1240001F08E
:102AC000E1FF054604E003E002E001E0012500BF6C
:102AD00000BF5DB94B482C30006820F00700D4F8E7
:102AE0009010084347492C31086000E0A846207840
:102AF00000F02000202836D1D4F88C00B0F1405FDF
:102B00001DD007DC68B1B0F1805F0BD0B0F1005F81
:102B100018D10DE0B0F1804F12D0B0F1A04F11D11B
:102B20000FE011E00021201D01F0FAFE05460BE048
:102B3000022104F1240001F0A5FF054604E003E0B2
:102B400002E001E0012500BF00BF5DB92D4828303B
:102B5000006820F0E040D4F88C100843294928315F
:102B6000086000E0A846207800F04000402836D1F8
:102B7000D4F89800B0F5406F1DD007DC68B1B0F50F
:102B8000806F0BD0B0F5006F18D10DE0B0F5805F0D
:102B900012D0B0F5A05F11D10FE011E00021201D8F
:102BA00001F0BEFE05460BE0022104F1240001F015
:102BB00069FF054604E003E002E001E0012500BFF3
:102BC00000BF5DB90F482C30006820F4E050D4F805
:102BD000981008430B492C31086000E0A846207883
:102BE00000F0800080283AD1D4F89C00B0F5C04FA6
:102BF00023D00DDC98B1B0F5005F11D0B0F5804F57
:102C00001ED113E02C44025800480258FFFCFF0F6D
:102C1000B0F5004F12D0B0F5204F11D10FE011E008
:102C20000021201D01F07CFE05460BE0022104F18D
:102C3000240001F027FF054604E003E002E001E084
:102C4000012500BF00BF4DB9B648006820F46040C0
:102C5000D4F89C100843B349086000E0A8462078E7
:102C600000F00800082818D1D4F88000B0F5805F83
:102C700008D1022104F1240001F004FF68B14FF0F3
:102C800001080AE0A748001F006820F44050D4F86B
:102C900080100843A349091F0860207800F0100045
:102CA000102816D1D4F89400B0F5807F08D1022105
:102CB00004F1240001F0E6FE58B14FF0010808E0ED
:102CC0009848006820F44070D4F89410084395495F
:102CD0000860206800F40020B0F5002F26D1D4F859
:102CE000A00030B1B0F5803F09D0B0F5003F0ED163
:102CF0000CE00021201D01F013FE054609E0022131
:102D000004F1240001F0BEFE054602E001E00125C9
:102D100000BF00BF4DB98348006820F44030D4F8AC
:102D2000A01008437F49086000E0A846206800F42E
:102D30008020B0F5802F2DD1D4F88400B0F5801F0D
:102D400006D0B0F5001F0CD0B0F5401F11D10FE038
:102D500074482C38006840F4003072492C390860FF
:102D600009E0012104F1240001F08CFE054602E097
:102D700001E0012500BF00BF5DB96A48001F00687F
:102D800020F44010D4F8841008436649091F0860F5
:102D900000E0A846206800F48030B0F5803F24D1E0
:102DA000E06C18B1B0F5803F0FD108E05D482C38D9
:102DB000006840F400305B492C39086007E00221CC
:102DC000201D01F0ADFD054601E0012500BF00BF5B
:102DD00055B954480C38006820F48030E16C084341
:102DE00050490C39086000E0A846206800F0005007
:102DF000B0F1005F07D1022104F1240001F042FE8E
:102E000008B14FF00108206800F40030B0F5003F31
:102E100027D1E06FA0B1B0F5807F06D0B0F5007F7C
:102E20000CD0B0F5407F0CD109E03E482C3800684A
:102E300040F400303B492C39086004E003E002E034
:102E400001E0012500BF00BF55B93648001F0068EA
:102E500020F44070E16F08433249091F086000E028
:102E6000A846206800F48010B0F5801F09D12D48D5
:102E70000838006820F00040216F084329490839CC
:102E80000860206800F08050B0F1805F0AD12548CA
:102E90004838006820F48040D4F8B4100843214931
:102EA00048390860206800F40010B0F5001F09D10F
:102EB0001C480838006820F08070A16E084319494A
:102EC00008390860206800F08040B0F1804F11D1CF
:102ED00000BF14484838006820F4004011494839C0
:102EE000086008460068D4F8B81008430D4948390E
:102EF000086000BF206800F00040B0F1004F09D129
:102F000008480C38006820F04050216D08430549FE
:102F10000C390860B8F1000F02D10020BDE8F08143
:102F20000120FBE7584402582DE9F04104460D46C4
:102F300014B90120BDE8F081B648006800F00F0028
:102F4000A8420ED2B348006820F00F002843B149D0
:102F500008600846006800F00F00A84201D0012078
:102F6000E8E7207800F0040004280ED1AA4920697F
:102F7000096801F07001884207D9A748006820F06D
:102F8000700021690843A4490860207800F0080017
:102F9000082811D1A049091D6069096801F0700174
:102FA000884209D99C48001D006820F070006169C2
:102FB00008439949091D0860207800F01000102886
:102FC00011D19549091DA069096801F4E0618842A1
:102FD00009D99148001D006820F4E060A169084308
:102FE0008D49091D0860207800F02000202811D1AB
:102FF00089490831E069096801F07001884209D9FE
:1030000085480830006820F07000E1690843824973
:1030100008310860207800F0020002280ED17E49B5
:10302000E068096801F00F01884207D97A48006812
:1030300020F00F00E168084377490860207800F02D
:103040000100002850D07448006820F47060A16826
:103050000843714908606068022807D16E48183833
:103060000068C0F34040F8B9012063E760680328B6
:1030700007D1694818380068C0F34060A0B9012042
:1030800058E76068012807D1634818380068C0F322
:10309000002048B901204DE75F4818380068C0F3A8
:1030A000800008B9012045E75B480838006820F037
:1030B000070061680843584908390860FEF796FE22
:1030C000064608E0FEF792FE801B41F288318842F6
:1030D00001D903202EE750480838006800F0380076
:1030E0006168B0EBC10FEDD1207800F0020002283A
:1030F0000ED14949E068096801F00F01884207D202
:103100004548006820F00F00E16808434249086024
:103110004048006800F00F00A8420ED93D48006802
:1031200020F00F0028433B4908600846006800F083
:103130000F00A84201D00120FCE6207800F0040036
:1031400004280ED134492069096801F070018842D1
:1031500007D23148006820F07000216908432E49E9
:103160000860207800F00800082811D12A49091DBC
:103170006069096801F07001884209D22648001D83
:10318000006820F07000616908432349091D086048
:10319000207800F01000102811D11F49091DA069E6
:1031A000096801F4E061884209D21B48001D0068EB
:1031B00020F4E060A16908431749091D08602078E0
:1031C00000F02000202811D113490831E069096876
:1031D00001F07001884209D20F480830006820F0E1
:1031E0007000E16908430C490831086000F058F8A4
:1031F00009490968C1F30321084A515C01F01F0124
:10320000C8400749086007480068FEF7FDFD07460B
:1032100038468FE60020005218440258227F0008EA
:10322000000000200C00002010B5FEF781FE0749C9
:10323000096801F00F01064A515C01F01F01C84006
:10324000044908600846006810BD00001844025890
:10325000227F00080400002010B5FFF7E5FF0549B4
:103260000968C1F30211044A515C01F01F01C84012
:1032700010BD00001C440258227F000810B5FFF763
:10328000D3FF05490968C1F30221044A515C01F0EA
:103290001F01C84010BD00001C440258227F0008D6
:1032A000F0B5824E366806F0380636B1082E15D0D5
:1032B000102E15D0182E7DD114E07C4E103E3668AD
:1032C000C6F3401646B1794E103E3668C6F3C107C4
:1032D000774E26FA07F000E07548E5E07548E3E030
:1032E0007548E1E0714E1836366806F003046F4EFB
:1032F00018363668C6F305116C4E1C36366806F073
:1033000001056A4E24363668C6F3CC0616FB05F670
:1033100001EE106AB8EE410A002971D024B1012CE7
:1033200050D0022C6DD16DE0604E103E3668C6F371
:1033300040163EB35D4E103E3668C6F3C1075C4E84
:1033400026FA07F301EE103AF8EE411A01EE101AD0
:10335000B8EE411A81EE812A9FED581AC0EE011A8B
:10336000524E20363668C6F3080601EE106AB8EEF3
:10337000411A31EE811AF7EE001A31EE211A62EE8F
:10338000010A1EE001EE101AB8EE411ADFED4C1AE8
:1033900081EE812A9FED491AC0EE011A434E203674
:1033A0003668C6F3080601EE106AB8EE411A31EE2F
:1033B000811A00E076E0F7EE001A31EE211A62EE93
:1033C000010A5BE001EE101AB8EE411A9FED3D2AAA
:1033D000C2EE011A9FED391A80EE012A334E2036D3
:1033E0003668C6F3080601EE106AB8EE411A32EEEE
:1033F000011AB7EE002A31EE021A61EE810A3DE0B1
:103400004EE01DE001EE101AB8EE411ADFED2E1A63
:1034100081EE812A9FED291AC0EE011A234E203633
:103420003668C6F3080601EE106AB8EE411A31EEAE
:10343000811AF7EE001A31EE211A62EE010A1DE040
:1034400001EE101AB8EE411A9FED1E2AC2EE011AC3
:103450009FED1A1A80EE012A144E20363668C6F304
:10346000080601EE106AB8EE411A32EE011AB7EE04
:10347000002A31EE021A61EE810A00BF00BF0B4E36
:1034800020363668C6F34626721C01EE102AB8EEC6
:10349000411AC0EE811ABCEEE11A11EE100A00E0EA
:1034A000002001E0034800BF00BFF0BD10440258F7
:1034B0000090D00300093D0040787D0100000046E7
:1034C0000024744C0024744A20BCBE4B2DE9F0410A
:1034D000044614B90120BDE8F081207800F0010015
:1034E000002871D0F848006800F03806F648183017
:1034F0000768102E05D0182E0FD107F00300022800
:103500000BD1F14810380068C0F3404000286AD061
:103510006068002867D10120DDE700BF6068B0F572
:10352000803F08D1E8481038006840F48030E64910
:10353000103908602EE0606868B9E3481038006808
:1035400020F48030E049103908600846006820F413
:10355000802008601EE06068B0F5A02F0DD1DA4829
:103560001038006840F48020D749103908600846B8
:10357000006840F4803008600CE0D34810380068E0
:1035800020F48030D049103908600846006820F4E3
:103590008020086000BF606890B1FEF727FC0546F8
:1035A00006E0FEF723FC401B642801D9032092E7C4
:1035B000C54810380068C0F340400028F1D012E040
:1035C000FEF714FC054607E00EE0FEF70FFC401B7B
:1035D000642801D903207EE7BB4810380068C0F397
:1035E00040400028F1D100BF207800F002000228FE
:1035F0007ED1B548006800F03806B3481830076837
:1036000026B1182E48D107F00300C0BBAE481038D1
:103610000068C0F3800018B1E06808B901205AE7DB
:10362000A9481038006820F01900E1680843A6494D
:1036300010390860FEF7DAFB054606E0FEF7D6FB18
:10364000401B022801D9032045E79F481038006835
:10365000C0F380000028F1D000BFFEF7C1FB41F2AB
:10366000030188420CD898480C38006820F47C305C
:10367000216940EA013094490C3908600BE00BE005
:1036800091480C38006820F0FE40217C40EA01603F
:103690008D490C39086059E0E06850B38A48103809
:1036A000006820F01900E168084387491039086074
:1036B000FEF79CFB054606E0FEF798FB401B022840
:1036C00001D9032007E7804810380068C0F3800064
:1036D0000028F1D000BFFEF783FB41F203018842CE
:1036E0000ED879480C38006820F47C30216901E05C
:1036F0002DE011E040EA013073490C3908600AE01E
:1037000071480C38006820F0FE40217C40EA0160DE
:103710006D490C39086019E06B481038006820F0DA
:103720000100694910390860FEF760FB054606E0B4
:10373000FEF75CFB401B022801D90320CBE6624860
:1037400010380068C0F380000028F1D100BF207855
:1037500000F01000102878D15B48006800F03806AF
:10376000594818300768082E05D0182E2FD107F0B9
:10377000030001282BD1544810380068C0F3002002
:1037800020B1E069802801D00120A4E600BFFEF747
:1037900027FB41F2030188420CD84B480C380068E3
:1037A00020F0F84094F8201040EA816046490C3936
:1037B00008600BE04448001F006820F07C5094F83B
:1037C000201040EA01604049091F086058E0E069A4
:1037D000D0B33D481038006840F080003A491039B5
:1037E0000860FEF703FB054606E0FEF7FFFA401B04
:1037F000022801D903206EE6334810380068C0F370
:1038000000200028F1D000BFFEF7EAFA41F20301E0
:1038100088420CD82C480C38006820F0F84094F806
:10382000201040EA816028490C3908600BE02648E6
:10383000001F006820F07C5094F8201040EA0160DE
:103840002149091F08601BE000E01AE01E481038FB
:10385000006820F080001C4910390860FEF7C6FAA5
:10386000054606E0FEF7C2FA401B022801D90320F4
:1038700031E6154810380068C0F300200028F1D167
:1038800000BF207800F00800082836D16069E8B150
:103890000D486430006840F001000B496431086055
:1038A000FEF7A4FA054606E0FEF7A0FA401B022840
:1038B00001D903200FE6044864300068C0F34000DB
:1038C0000028F1D019E0000010440258CF480068E9
:1038D00020F00100CD490860FEF788FA054606E0B1
:1038E000FEF784FA401B022801D90320F3E5C748FC
:1038F0000068C0F340000028F2D1207800F02000DA
:10390000202836D1A069D0B1C0487438006840F48E
:103910008050BE4974390860FEF768FA054606E033
:10392000FEF764FA401B022801D90320D3E5B7480B
:1039300074380068C0F340300028F1D019E0B34873
:103940007438006820F48050B04974390860FEF77C
:103950004DFA054606E0FEF749FA401B022801D958
:103960000320B8E5A94874380068C0F34030002847
:10397000F1D1207800F0040004287DD1A44800682B
:1039800040F48070A2490860FEF730FA054606E070
:10399000FEF72CFA401B642801D903209BE59C48C4
:1039A000006800F480700028F2D000BFA0680128F1
:1039B00008D19648001F006840F001009349091F94
:1039C00008602DE0A06868B99048001F006820F0EA
:1039D00001008E49091F08600846006820F00400B5
:1039E00008601DE0A06805280DD18848001F006808
:1039F00040F004008549091F08600846006840F04F
:103A0000010008600CE08148001F006820F0010000
:103A10007E49091F08600846006820F0040008601D
:103A200000BFA068A0B1FEF7E1F9054608E0FEF787
:103A3000DDF9401B41F28831884201D903204AE573
:103A40007248001F0068C0F340000028EFD013E068
:103A5000FEF7CCF9054608E0FEF7C8F9401B41F235
:103A60008831884201D9032035E56848001F006885
:103A7000C0F340000028EFD1606A00287ED0634880
:103A80006438006800F03800182878D0606A02288E
:103A900076D15E487438006820F080705B497439D4
:103AA0000860FEF7A3F9054606E0FEF79FF9401B04
:103AB000022801D903200EE5544874380068C0F389
:103AC00040600028F1D100BFD4E90A1041EA00109B
:103AD0004E494C39096840F2F332914308434B494F
:103AE0004C390860208E401EC0F30800616B491EEF
:103AF0004FF47E4202EA41210843218F491ED20140
:103B000002EA014108433C21095D491E120202EA12
:103B1000016108433D494439086000BF081F00683F
:103B200020F00100091F08603848403800684FF64F
:103B3000F8718843A16C40EAC100344940390860FB
:103B400032484838006820F00C00216C08432F49A7
:103B5000483908600846006820F00200616C08439C
:103B60002A49483908600846006840F480300860F7
:103B70000846006840F40030086002E043E040E09E
:103B800024E00846006840F4802008600846006889
:103B900040F0010008601D487438006840F08070F3
:103BA0001A4974390860FEF721F9054606E0FEF768
:103BB0001DF9401B022801D903208CE413487438F6
:103BC0000068C0F340600028F1D01CE00F48743852
:103BD000006820F080700D4974390860FEF706F91E
:103BE000054606E0FEF702F9401B022801D9032032
:103BF00071E4064874380068C0F340600028F1D1D1
:103C000001E0012067E4002065E4000074440258EC
:103C100000480258704710B5FFF7FCFF10BD704711
:103C20007047704710B5034600BF93F83C00012869
:103C300001D1022010BD012083F83C0000BF29B152
:103C4000102903D0202901D030290AD118688068B2
:103C5000164C20401C68A0601868806808431C68E7
:103C6000A0601868406840F001001C686060186837
:103C7000406820F004001C686060186840681043C9
:103C80001C6860601868C06820F020001C68E06054
:103C90001868C06820F400501C68E06000BF002075
:103CA00083F83C0000BF00BFC4E700008FFFCFFFD8
:103CB00030B587B004460D4614B9012007B030BDB9
:103CC00094F83D0028B9002084F83C00204600F01C
:103CD0005BF8022084F83D00211D206801F06AF89D
:103CE000AB6829680322206801F088FA206880699F
:103CF00020F00C00216888612068806969680843A9
:103D0000216888612068406840F080002168486030
:103D1000206880681A4908402168886020688068A7
:103D200040F040002168886020688068154908409C
:103D3000216888602068806840F0040021688860FD
:103D400000200490059070200090002006900390C1
:103D50000290E86801906946206801F0F9F820684F
:103D6000406820F07000216848602068406840F09A
:103D7000500021684860012084F83D0000209DE744
:103D80008FFFCFFFF8FFFEFF7047000070B50446BD
:103D900001220021206801F073F82068806808493A
:103DA00000EA0105062D08D0B5F5803F05D0206852
:103DB000006840F0010021680860002070BD00002C
:103DC0000700010010B5044600221146206801F0EA
:103DD00057F800BF2068006A41F21111084050B93D
:103DE0002068006A8910084028B92068006820F01F
:103DF00001002168086000BF002010BD10B5044616
:103E00000CB9012010BD94F83D0028B9002084F8B9
:103E10003C00204600F00CF8022084F83D00211DF3
:103E2000206800F0C7FF012084F83D000020E9E78A
:103E30007047000001460868C06840F001000B6848
:103E4000D86008688068084B00EA0302062A08D098
:103E5000B2F5803F05D00868006840F001000B68AB
:103E60001860002070470000070001000146086844
:103E7000C06820F001000A68D06000BF0868006ACE
:103E800041F21112104050B90868006A92101040B7
:103E900028B90868006820F001000A68106000BFB7
:103EA00000207047024600BF92F83C00012801D173
:103EB00002207047012082F83C0000BF022082F8F7
:103EC0003D0010684161012082F83D0000BF0020E4
:103ED00082F83C0000BF00BFEBE7704710B5044616
:103EE00020680069C0F34000D8B12068C068C0F302
:103EF0004000B0B16FF00200216808610120207716
:103F00002068806900F0030018B12046FFF7E5FF44
:103F100005E0204600F0BEF8204600F091F90020B0
:103F2000207720680069C0F38000D8B12068C0689D
:103F3000C0F38000B0B16FF0040021680861022076
:103F400020772068806900F4407018B12046FFF7A0
:103F5000C4FF05E0204600F09DF8204600F070F90F
:103F60000020207720680069C0F3C000D8B1206825
:103F7000C068C0F3C000B0B16FF0080021680861EC
:103F8000042020772068C06900F0030018B12046A3
:103F9000FFF7A3FF05E0204600F07CF8204600F084
:103FA0004FF90020207720680069C0F30010D8B1D5
:103FB0002068C068C0F30010B0B16FF01000216835
:103FC0000861082020772068C06900F4407018B1AB
:103FD0002046FFF782FF05E0204600F05BF8204610
:103FE00000F02EF9002020772068006900F0010021
:103FF00058B12068C06800F0010030B16FF00100D6
:1040000021680861204600F0B7F920680069C0F314
:10401000C01058B12068C068C0F3C01030B16FF054
:104020008000216808612046FFF7FAFD20680069DA
:10403000C0F3002058B12068C068C0F3C01030B190
:104040006FF48070216808612046FFF7E8FD206862
:104050000069C0F3801058B12068C068C0F38010B8
:1040600030B16FF0400021680861204600F096F9F9
:1040700020680069C0F3401058B12068C068C0F3E0
:10408000401030B16FF02000216808612046FFF732
:10409000C8FD10BD704770B504460D46164600BFFA
:1040A00094F83C00012801D1022070BD012084F861
:1040B0003C0000BF022084F83D000C2E51D005DCEE
:1040C0004EB1042E1ED0082E7AD133E0102E60D0CF
:1040D000142EF9D175E02946206800F0E3FE20682F
:1040E000806940F00800216888612068806920F0BC
:1040F0000400216888612068806929690843216873
:10410000886177E02946206800F022FF20688069F6
:1041100040F40060216888612068806920F4806034
:104120002168886120688069296940EA0120216846
:1041300088615FE02946206800F064FF2068C0695C
:1041400040F008002168C8612068C06920F00400C0
:104150002168C8612068C069296908432168C8616D
:1041600048E02946206800F0A5FF2068C06940F4B7
:1041700000602168C8612068C06920F480602168FF
:10418000C8612068C069296940EA01202168C861C6
:1041900030E02946206800F0C5FF2068406D40F0FF
:1041A0000800216848652068406D20F004002168FF
:1041B00048652068406D296908432168486519E011
:1041C00017E02946206800F0E3FF2068406D40F4C6
:1041D0000060216848652068406D20F48060216897
:1041E00048652068406D296940EA012021684865DA
:1041F00000E000BF00BF012084F83D0000BF0020A8
:1042000084F83C0000BF00BF4FE710B504460CB96E
:10421000012010BD94F83D0028B9002084F83C002E
:10422000204600F00CF8022084F83D00211D206893
:1042300000F0C0FD012084F83D000020E9E7704750
:104240007047000070B504460E46012231462068D2
:1042500000F016FE1749206888420FD016492068E2
:1042600088420BD015492068884207D0144920683D
:10427000884203D013492068884201D1012000E020
:10428000002028B12068406C40F400402168486458
:10429000206880680C4900EA0105062D08D0B5F5B4
:1042A000803F05D02068006840F001002168086068
:1042B000002070BD000001400004014000400140AA
:1042C00000440140004801400700010030B50446A9
:1042D0000D4600222946206800F0D2FD21492068C1
:1042E00088420FD02049206888420BD01F4920689F
:1042F000884207D01E492068884203D01D492068A3
:10430000884201D1012000E0002090B100BF206868
:10431000006A41F21111084050B92068006A891002
:10432000084028B92068406C20F4004021684864A7
:1043300000BF00BF2068006A41F21111084050B967
:104340002068006A8910084028B92068006820F0B9
:1043500001002168086000BF012084F83D000020B2
:1043600030BD000000000140000401400040014059
:10437000004401400048014010B50446064884420C
:1043800002D102F025FF05E00348AC38844201D198
:1043900002F00AFE10BD0000E800002070B50446DF
:1043A000002502F051FE0546012D16DB062D14DC1A
:1043B0000B48844208D12068416B284603F0EEF98F
:1043C00000200749C1F8C801284602F0D5FD202188
:1043D00003485030FFF766FD01E002F02BFE70BD90
:1043E0003C00002070477047704770472DE9F04748
:1043F00004462068C569206806682068876840F61A
:104400000F0005EA0008B8F1000F0FD105F02000F9
:1044100060B106F0200010B907F0805030B1E06EB6
:1044200010B12046E16E8847BDE8F087B8F1000F73
:104430007ED06E48384018B96D4830400028F7D01B
:1044400005F0010058B106F4807040B101202168E8
:104450000862D4F8880040F00100C4F8880005F034
:10446000020058B107F0010040B102202168086243
:10447000D4F8880040F00400C4F8880005F0040077
:1044800058B107F0010040B1042021680862D4F857
:10449000880040F00200C4F8880005F0080070B100
:1044A00006F0200010B95148384040B1082021687A
:1044B0000862D4F8880040F00800C4F8880005F4C9
:1044C000006060B106F0806048B14FF40060216880
:1044D0000862D4F8880040F02000C4F88800D4F8BE
:1044E0008800002844D005F0200050B106F02000DC
:1044F00010B907F0805020B1E06E10B12046E16E97
:104500008847D4F888902068806800F040004028F0
:1045100002D009F0280028B3204600F0ADFF206843
:10452000806800F04000402818D12068806800E0D2
:104530001FE020F0400021688860A06F50B12D4836
:10454000A16F0865A06FFDF787F988B1A06F016DB5
:1045500088470DE02046FFF748FF09E02046FFF7B7
:1045600044FF05E02046FFF740FF0020C4F8880024
:104570005AE705F4801050B107F4800038B14FF4C9
:104580008010216808622046FFF72EFF4CE705F0F7
:10459000800058B106F0800010B907F4000028B17F
:1045A000206F10B12046216F88473DE705F040009D
:1045B00030B106F0400018B1204600F071FF33E73B
:1045C00005F4000030B106F0804018B12046FFF736
:1045D0000AFF29E705F0807030B106F0004018B1FD
:1045E0002046FFF7FFFE1FE700BF1DE70100001098
:1045F000200100046154000810B504460CB90120E4
:1046000010BDA06900B100E000BFD4F8800028B957
:10461000002084F87C00204600F02AF82420C4F80A
:1046200080002068006820F00100216808602046B2
:1046300000F048FF012800D1E2E7A06A10B120464F
:1046400000F058FE2068406820F4904021684860DF
:104650002068806820F02A0021688860206800684F
:1046600040F0010021680860204600F0BFFEC7E767
:1046700010B586B004462149206888423BD100BF6E
:104680001F48006840F001001D49086008460068A6
:1046900000F00100009000BF00BF00BF18481030BC
:1046A000006840F0100016491031086008460068A4
:1046B00000F01000009000BF00BF4FF400700190A8
:1046C0000220029001200390022004900720059010
:1046D00001A90C48FDF772FA4FF4806001900220A6
:1046E000029001200390022004900720059001A968
:1046F0000448FDF763FA06B010BD00000010014049
:10470000E0440258000002582DE9F84F04460E46D6
:1047100017469946D4F8800020285DD106B117B914
:104720000120BDE8F88F00BF94F87C00012801D17A
:104730000220F6E7012084F87C0000BF00205434FA
:1047400060632120E062FDF751FB8246278067808D
:10475000543CA068B0F5805F04D1206910B90025F1
:10476000B04602E035464FF000081DE053460022F7
:1047700080212046CDF8009002F01CFA08B10320F9
:10478000CFE745B9B8F80000C0F308002168886297
:1047900008F1020803E02878216888626D1CB4F8EB
:1047A0005600401EA4F85600B4F856000028DDD18B
:1047B0005346002240212046CDF8009002F0FAF93D
:1047C00008B10320ADE72020C4F8800000BF00201E
:1047D00084F87C0000BFA4E70220A2E7704700BF76
:1047E000FEE7000000B587B000BF3448006840F025
:1047F0000100324908600846006800F0010001909D
:1048000000BF00BF00BF0846006840F00400086019
:104810000846006800F00400019000BF00BF00BF20
:104820000846006840F0800008600846006800F014
:104830008000019000BF00BF01200290204803903B
:104840000220049002A91F48FDF7B8F94FF4005068
:1048500002901D4803900120049002A91B48FDF717
:10486000ADF90C200290184803900120049002A991
:104870001748FDF7A3F9002202210620FDF7EAFA06
:104880000620FDF7D7FA012202210820FDF7E2FAFF
:104890000820FDF7CFFA022211460920FDF7DAFAC7
:1048A0000920FDF7C7FA032202212820FDF7D2FADA
:1048B0002820FDF7BFFA07B000BD0000E044025811
:1048C00000001111000002580000211100080258D8
:1048D000001C025800B587B000BF0D48006840F0CA
:1048E00002000B4908600846006800F002000190D1
:1048F00000BF00BF0320029001200390049003201A
:10490000059002A90348FDF759F907B000BD000062
:10491000E04402580004025800BFFEE770477047A9
:104920002DE9F04104460E4600275548006800F086
:104930000300032802D10120BDE8F0815048283847
:10494000006820F080604E4928390860FDF74EFA73
:10495000054606E0FDF74AFA401B022801D903206C
:10496000EAE7474828380068C0F3C0600028F1D162
:1049700000BF4348006820F47C30216840EA0130E1
:104980003F490860A088401EC0F30800A168491E86
:104990004FF47E4202EA41210843A189491ED20117
:1049A00002EA01410843217C491E120202EA016128
:1049B000084333491031086000BF3148001D0068CA
:1049C00020F0C000616908432D49091D08600846B0
:1049D000006820F02000A16908432949091D0860EA
:1049E0000846006820F01000086025481430006870
:1049F0004FF6F8718843E16940EAC100204914315B
:104A000008601F48001D006840F010001C49091D87
:104A100008602EB90846006840F40020086012E0E3
:104A2000012E08D11648001D006840F4801014497A
:104A3000091D086007E01248001D006840F40010DE
:104A40000F49091D08600E482838006840F0806052
:104A50000B4928390860FDF7C9F9054606E0FDF75E
:104A6000C5F9401B022801D9032065E7044828380E
:104A70000068C0F3C0600028F1D038465CE7000051
:104A8000284402582DE9F04104460E4600275548B7
:104A9000006800F00300032802D10120BDE8F08186
:104AA00050482838006820F080504E492839086066
:104AB000FDF79CF9054606E0FDF798F9401B022832
:104AC00001D90320EAE7474828380068C0F340705E
:104AD0000028F1D100BF4348006820F07C70218895
:104AE00040EA01503F490860A088401EC0F308001A
:104AF000A168491E4FF47E4202EA41210843A18980
:104B0000491ED20102EA01410843217C491E1202DA
:104B100002EA0161084333491831086000BF314897
:104B2000001D006820F44060616908432D49091D9B
:104B300008600846006820F40070A169084329490C
:104B4000091D08600846006820F480700860254848
:104B50001C3000684FF6F8718843E16940EAC100F3
:104B600020491C3108601F48001D006840F4807017
:104B70001C49091D08602EB90846006840F48000F1
:104B8000086012E0012E08D11648001D006840F4AC
:104B900000001449091D086007E01248001D006864
:104BA00040F080700F49091D08600E4828380068E1
:104BB00040F080500B4928390860FDF717F9054689
:104BC00006E0FDF713F9401B022801D9032065E731
:104BD000044828380068C0F340700028F1D03846F7
:104BE0005CE7000028440258704710B5FFF713F83F
:104BF00010BD000000B5CBB04C2138A8FBF728FD54
:104C0000202130A8FBF724FDBC2101A8FBF720FDE3
:104C10000220FDF75DF900BF0020009031480068D8
:104C200040F440402F4908600846006800F44040C6
:104C300000902D48006820F00100401C2A490860BF
:104C40000846006800F00100009000BF00BF00BFF0
:104C50002448006800F40050B0F5005FF8D101204E
:104C600038900004399002204190022138A88162D6
:104C70000521C162A0210163022141638163C163F7
:104C800008210164002141648164FEF71FFC08B122
:104C900000BFFEE73F20309003203190002032908B
:104CA0000820339040203490359000013690402009
:104CB0003790042130A8FEF737F9042130A8FEF719
:104CC00033F908B100BFFEE74FF400400190400304
:104CD0001C9001A8FDF786FB08B100BFFEE74BB0B2
:104CE00000BD0000184802582C04005824480068F1
:104CF00040F47000224908602248006840F001003A
:104D00002049086000201F49103108601D480068D4
:104D10001D4908401B49086000201A4918310860E5
:104D2000091D0860091D0860164928310860091D21
:104D30000860091D0860091D0860091D0860091D3B
:104D40000860091D0860091D08600E48006820F40D
:104D500080200C49086000200A49603108600B4837
:104D600000686FF30F00B0F1005F02D20120084924
:104D700008604FF000600249803908607047000009
:104D800088ED00E0004402587FEDF6EA0010005C78
:104D90000881005110B50248FFF7A0F810BD0000CF
:104DA0003C00002010B50248FFF798F810BD000045
:104DB000E800002010B50268294B98420ED0B0F1EF
:104DC000804F0BD0274B984208D0274B984205D0F4
:104DD000264B984202D0264B984203D122F0700213
:104DE0004B681A431E4B984217D0B0F1804F14D035
:104DF0001C4B984211D01C4B98420ED01B4B984232
:104E00000BD01B4B984208D01A4B984205D01A4B36
:104E1000984202D0194B984203D122F44072CB68D9
:104E20001A4322F080034C6943EA040202608B6853
:104E3000C3620B6883620A4B98420BD00C4B9842BA
:104E400008D00C4B984205D00B4B984202D00B4B2C
:104E5000984201D10B6903630123436110BD000037
:104E6000000001400004004000080040000C004029
:104E7000000401400040014000440140004801405E
:104E800030B501F01F05012404FA05F3046A9C43C0
:104E90000462046A01F01F0502FA05F52C4304625E
:104EA00030BD000030B5056A25F001050562026AD3
:104EB00043688469204D2C4024F003040D682C4382
:104EC00022F002028D682A431C4DA84200D10FE057
:104ED0001B4DA84200D10BE01A4DA84200D107E0BB
:104EE000194DA84200D103E0184DA84206D100BFD9
:104EF00022F00802CD682A4322F004020F4DA84296
:104F00000BD00F4DA84208D00E4DA84205D00E4D33
:104F1000A84202D00D4DA84207D123F4807323F498
:104F200000734D692B438D692B43436084614D6849
:104F30004563026230BD00008FFFFEFF00000140AC
:104F4000000401400040014000440140004801408D
:104F500030B5056A25F010050562026A4368846968
:104F6000224D2C4024F440740D6844EA052422F0BC
:104F700020028D6842EA05121D4DA84200D10FE0C3
:104F80001C4DA84200D10BE01B4DA84200D100BF30
:104F90001A4DA84200D100BF194DA84207D106E022
:104FA00022F08002CD6842EA051222F04002104D44
:104FB000A8420BD00F4DA84208D00F4DA84205D0F3
:104FC0000E4DA84202D00E4DA84209D123F48063B1
:104FD00023F400634D6943EA85038D6943EA850341
:104FE000436084614D688563026230BDFF8FFFFEC0
:104FF0000000014000040140004001400044014025
:105000000048014030B5056A25F480750562026AE2
:105010004368C46924F0700424F003040D682C4331
:1050200022F400728D6842EA05221D4DA84200D18B
:105030000FE01C4DA84200D10BE01B4DA84200D14F
:1050400000BF1A4DA84200D100BF194DA84207D198
:1050500006E022F40062CD6842EA052222F4806272
:105060000F4DA8420BD00F4DA84208D00E4DA842BC
:1050700005D00E4DA84202D00D4DA84209D123F40F
:10508000805323F400534D6943EA05138D6943EAC5
:1050900005134360C4614D68C563026230BD000002
:1050A0000000014000040140004001400044014074
:1050B0000048014030B5056A25F480550562036A51
:1050C0004468C26922F4E04222F440720D6842EA68
:1050D000052223F400538D6843EA05330C4DA842A2
:1050E0000BD00C4DA84208D00B4DA84205D00B4D5B
:1050F000A84202D00A4DA84204D124F480444D694C
:1051000044EA85144460C2614D680564036230BDA1
:105110000000014000040140004001400044014003
:105120000048014030B5056A25F480350562046AFF
:105130004268436D23F070030D682B4324F4003460
:105140000D8944EA05440D4DA8420BD00C4DA842F0
:1051500008D00C4DA84205D00B4DA84202D00B4DF3
:10516000A84204D122F480324D6942EA052242600D
:1051700043654D688565046230BD00000000014054
:10518000000401400040014000440140004801404B
:1051900030B5056A25F480150562036A4468426DDE
:1051A00022F4E0420D6842EA052223F400130D893F
:1051B00043EA05530C4DA8420BD00C4DA84208D031
:1051C0000B4DA84205D00B4DA84202D00A4DA84273
:1051D00004D124F400344D6944EA852444604265D6
:1051E0004D68C565036230BD000001400004014008
:1051F00000400140004401400048014070B50C46A9
:105200001546066A26F0010606628169026A184E92
:10521000B04214D0B0F1804F11D0164EB0420ED033
:10522000154EB0420BD0154EB04208D0144EB042CD
:1052300005D0144EB04202D0134EB04201D1012627
:1052400000E000261EB121F00301294301E041F0F6
:10525000010121F0F001F02606EA0316314322F0A5
:105260000A0204F00A0632438161026270BD000046
:10527000000001400004004000080040000C004015
:1052800000040140001800400040014010B50446F1
:105290001648174908600846446000218160C160D3
:1052A00001610C214161FFF7A7F9012200212520AE
:1052B000FCF7D0FD2520FCF7BDFD0D480068006817
:1052C00040F020000A490968086009480068006841
:1052D00040F0004006490968086005480068006819
:1052E00040F0200002490968086010BD001001402C
:1052F0003003002090F8281001F0010139B1016855
:10530000496821F40031C26A11430268516090F883
:10531000281001F00201022907D10168496821F42F
:105320008031026B11430268516090F8281001F03F
:105330000401042907D10168496821F48021426BE6
:1053400011430268516090F8281001F00801082903
:1053500007D10168496821F40041826B114302685A
:10536000516090F8281001F01001102907D1016850
:10537000896821F48051C26B11430268916090F8F2
:10538000281001F02001202907D10168896821F443
:105390000051026C11430268916090F8281001F0EE
:1053A0004001402913D10168496821F48011426C01
:1053B000114302685160416CB1F5801F07D101684B
:1053C000496821F4C001826C11430268516090F871
:1053D000281001F08001802907D10168496821F473
:1053E0000021C26C114302685160704738B5044611
:1053F0000020C4F88800FCF7F9FC05462068006826
:1054000000F0080008280CD16FF07E402B460022E7
:105410004FF400110090204601F0CCFB08B10320AE
:1054200038BD2068006800F0040004280CD16FF03B
:105430007E402B4600224FF480010090204601F070
:10544000B9FB08B10320EBE72020C4F88000C4F8C2
:10545000840000BF002084F87C0000BF00BFDFE7AD
:1054600070B50546AC6B0020A4F85E00A4F85600A9
:105470002046FEF7BAFF70BD0168096821F49071FB
:105480000268116001688968044A114002689160ED
:105490002021C0F884100021C1667047FEFFFFEF95
:1054A00010B504462068006820F0400021680860BC
:1054B0002020C4F88000002020672046FFF78EF9E6
:1054C00010BD00002DE9F04F89B004464FF00009EF
:1054D000002007908346F9492068884200D100E007
:1054E00000BF2169A068084361690843E16940EA97
:1054F000010A606E40EA0A0A20680068F049084024
:1055000040EA0A00216808602068406820F44050A2
:10551000E168084321684860D4F818A0E74920688A
:10552000884202D0206A40EA0A0A20688068E54979
:10553000084040EA0A00216888602068C06A20F0BC
:105540000F00616A08432168C86200BFDE49206815
:10555000884220D1DD48006800F03800182811D0BA
:1055600005DC48B1082809D0102811D108E020280E
:105570000AD028280CD109E001250BE0042509E018
:10558000082507E0102505E0202503E0402501E07F
:10559000802500BFF8E0CE492068884219D1CB4869
:1055A000006800F00700062810D2DFE800F00305CD
:1055B00007090B0D00250BE0042509E0082507E08D
:1055C000102505E0202503E0402501E0802500BFEF
:1055D000DAE0C0492068884219D1BC48006800F070
:1055E0000700062810D2DFE800F0030507090B0DBD
:1055F00000250BE0042509E0082507E0102505E05B
:10560000202503E0402501E0802500BFBCE0B24931
:105610002068884219D1AD48006800F007000628CC
:1056200010D2DFE800F0030507090B0D00250BE0A1
:10563000042509E0082507E0102505E0202503E002
:10564000402501E0802500BF9EE0A44920688842F3
:1056500019D19E48006800F00700062810D2DFE844
:1056600000F0030507090B0D00250BE0042509E0F8
:10567000082507E0102505E0202503E0402501E08E
:10568000802500BF80E096492068884220D18F485D
:10569000006800F03800182811D005DC48B108284F
:1056A00009D0102811D108E020280AD028280CD1D0
:1056B00009E001250BE0042509E0082507E0102595
:1056C00005E0202503E0402501E0802500BF5BE0E8
:1056D00084492068884219D17C48006800F007009E
:1056E000062810D2DFE800F0030507090B0D00259E
:1056F0000BE0042509E0082507E0102505E020253A
:1057000003E0402501E0802500BF3DE076492068A8
:10571000884219D16D48006800F00700062810D2B1
:10572000DFE800F0030507090B0D00250BE0042559
:1057300009E0082507E0102505E0202503E04025C5
:1057400001E0802500BF1FE05C49206888421AD133
:105750005E48001D006800F00700062810D2DFE850
:1057600000F0030507090B0D02250BE0042509E0F5
:10577000082507E0102505E0202503E0402501E08D
:10578000802500BF00E0802500BF4C49206888428A
:1057900071D1102D70D006DC022D09D0042D49D016
:1057A000082D6AD1A6E0202D68D0402DF9D1B3E1B3
:1057B000FCF7D6FB616A09B9012138E0616A012969
:1057C00001D1022133E0616A022901D104212EE0D6
:1057D000616A032901D1062129E0616A042901D106
:1057E000082124E0616A052901D10A211FE0616ACC
:1057F000062901D10C211AE0616A072901D1102183
:1058000015E0616A082901D1202110E0616A0929A7
:1058100001D140210BE0616A0A2901D1802106E013
:10582000616A0B2902D14FF4807100E00121B0FBC5
:10583000F1FBB6E104A8FCF7A5FB0598616A09B97C
:10584000012154E0616A012901D102214FE0616A1E
:10585000022901D104214AE0616A032901D106210C
:1058600045E0616A042901D1082140E0616A052907
:1058700005D10A213BE0FDE380E08FE10BE1616AA5
:10588000062901D10C2132E0616A072901D11021DA
:105890002DE0616A082901D1202128E0616A0929E7
:1058A00001D1402123E0616A0A2901D180211EE053
:1058B000616A0B291AD14FF4807118E0000C00586E
:1058C000F369FFCFFFF4FF11001001405444025868
:1058D0000044004000480040004C004000500040A0
:1058E0000014014000780040007C00400121B0FB22
:1058F000F1FB56E101A8FCF75DFC0298616A09B969
:10590000012138E0616A012901D1022133E0616A95
:10591000022901D104212EE0616A032901D1062167
:1059200029E0616A042901D1082124E0616A05297E
:1059300001D10A211FE0616A062901D10C211AE078
:10594000616A072901D1102115E0616A082901D196
:10595000202110E0616A092901D140210BE0616A30
:105960000A2901D1802106E0616A0B2902D14FF496
:10597000807100E00121B0FBF1FB12E1FA48006800
:10598000C0F3401088B3F8480068C0F3C101F7487D
:10599000C840616A09B9012139E0616A012901D170
:1059A000022134E0616A022901D104212FE0616AF9
:1059B000032901D106212AE0616A042901D10821C5
:1059C00025E0616A052901D10A2120E0616A0629E2
:1059D00001D10C211BE0616A072901D1102116E0D9
:1059E000616A082902D1202111E013E0616A0929C6
:1059F00001D140210BE0616A0A2901D1802106E032
:105A0000616A0B2902D14FF4807100E00121B0FBE3
:105A1000F1FB3FE0606A08B9012038E0606A0128C4
:105A200001D1022033E0606A022801D104202EE077
:105A3000606A032801D1062029E0606A042801D1A8
:105A4000082024E0606A052801D10A201FE0606A6E
:105A5000062801D10C201AE0606A072801D1102025
:105A600015E0606A082801D1202010E0606A09284A
:105A700001D140200BE0606A0A2801D1802006E0B5
:105A8000606A0B2802D14FF4807000E00120B74912
:105A9000B1FBF0FB85E0606A08B9012038E0606A7C
:105AA000012801D1022033E0606A022801D10420DC
:105AB0002EE0606A032801D1062029E0606A0428EC
:105AC00001D1082024E0606A052801D10A201FE0E6
:105AD000606A062801D10C201AE0606A072801D10B
